{
  "_format": "hh-sol-artifact-1",
  "contractName": "Decentralized_Identity",
  "sourceName": "contracts/Decentralized_Identity.sol",
  "address": "0x587Fd2CB5B6f20cd842bC59554d97359e3F55e06",
  "abi": [
    {
      "inputs": [
        {
          "internalType": "string",
          "name": "_publicKey",
          "type": "string"
        }
      ],
      "name": "RegisterDID",
      "outputs": [],
      "stateMutability": "nonpayable",
      "type": "function"
    },
    {
      "inputs": [
        {
          "internalType": "address",
          "name": "",
          "type": "address"
        }
      ],
      "name": "RegisteredDID",
      "outputs": [
        {
          "internalType": "address",
          "name": "owner",
          "type": "address"
        },
        {
          "internalType": "string",
          "name": "did",
          "type": "string"
        }
      ],
      "stateMutability": "view",
      "type": "function"
    },
    {
      "inputs": [],
      "name": "checkIfRegistered",
      "outputs": [
        {
          "internalType": "bool",
          "name": "",
          "type": "bool"
        }
      ],
      "stateMutability": "view",
      "type": "function"
    }
  ],
  "bytecode": "0x608060405234801561001057600080fd5b50610a0a806100206000396000f3fe608060405234801561001057600080fd5b50600436106100415760003560e01c80632603584b146100465780639db9337714610077578063f0571c4614610095575b600080fd5b610060600480360381019061005b919061046d565b6100b1565b60405161006e929190610539565b60405180910390f35b61007f61017d565b60405161008c9190610584565b60405180910390f35b6100af60048036038101906100aa9190610604565b610224565b005b60006020528060005260406000206000915090508060000160009054906101000a900473ffffffffffffffffffffffffffffffffffffffff16908060010180546100fa90610680565b80601f016020809104026020016040519081016040528092919081815260200182805461012690610680565b80156101735780601f1061014857610100808354040283529160200191610173565b820191906000526020600020905b81548152906001019060200180831161015657829003601f168201915b5050505050905082565b60008073ffffffffffffffffffffffffffffffffffffffff166000803373ffffffffffffffffffffffffffffffffffffffff1673ffffffffffffffffffffffffffffffffffffffff16815260200190815260200160002060000160009054906101000a900473ffffffffffffffffffffffffffffffffffffffff1673ffffffffffffffffffffffffffffffffffffffff160361021c5760009050610221565b600190505b90565b600073ffffffffffffffffffffffffffffffffffffffff166000803373ffffffffffffffffffffffffffffffffffffffff1673ffffffffffffffffffffffffffffffffffffffff16815260200190815260200160002060000160009054906101000a900473ffffffffffffffffffffffffffffffffffffffff1673ffffffffffffffffffffffffffffffffffffffff16146102f4576040517f08c379a00000000000000000000000000000000000000000000000000000000081526004016102eb906106fd565b60405180910390fd5b60405180604001604052803373ffffffffffffffffffffffffffffffffffffffff16815260200183838080601f016020809104026020016040519081016040528093929190818152602001838380828437600081840152601f19601f820116905080830192505050505050508152506000803373ffffffffffffffffffffffffffffffffffffffff1673ffffffffffffffffffffffffffffffffffffffff16815260200190815260200160002060008201518160000160006101000a81548173ffffffffffffffffffffffffffffffffffffffff021916908373ffffffffffffffffffffffffffffffffffffffff16021790555060208201518160010190816103fd9190610902565b509050505050565b600080fd5b600080fd5b600073ffffffffffffffffffffffffffffffffffffffff82169050919050565b600061043a8261040f565b9050919050565b61044a8161042f565b811461045557600080fd5b50565b60008135905061046781610441565b92915050565b60006020828403121561048357610482610405565b5b600061049184828501610458565b91505092915050565b6104a38161042f565b82525050565b600081519050919050565b600082825260208201905092915050565b60005b838110156104e35780820151818401526020810190506104c8565b60008484015250505050565b6000601f19601f8301169050919050565b600061050b826104a9565b61051581856104b4565b93506105258185602086016104c5565b61052e816104ef565b840191505092915050565b600060408201905061054e600083018561049a565b81810360208301526105608184610500565b90509392505050565b60008115159050919050565b61057e81610569565b82525050565b60006020820190506105996000830184610575565b92915050565b600080fd5b600080fd5b600080fd5b60008083601f8401126105c4576105c361059f565b5b8235905067ffffffffffffffff8111156105e1576105e06105a4565b5b6020830191508360018202830111156105fd576105fc6105a9565b5b9250929050565b6000806020838503121561061b5761061a610405565b5b600083013567ffffffffffffffff8111156106395761063861040a565b5b610645858286016105ae565b92509250509250929050565b7f4e487b7100000000000000000000000000000000000000000000000000000000600052602260045260246000fd5b6000600282049050600182168061069857607f821691505b6020821081036106ab576106aa610651565b5b50919050565b7f44494420416c7265616479205265676973746572656421000000000000000000600082015250565b60006106e76017836104b4565b91506106f2826106b1565b602082019050919050565b60006020820190508181036000830152610716816106da565b9050919050565b7f4e487b7100000000000000000000000000000000000000000000000000000000600052604160045260246000fd5b60008190508160005260206000209050919050565b60006020601f8301049050919050565b600082821b905092915050565b6000600883026107ae7fffffffffffffffffffffffffffffffffffffffffffffffffffffffffffffffff82610771565b6107b88683610771565b95508019841693508086168417925050509392505050565b6000819050919050565b6000819050919050565b60006107ff6107fa6107f5846107d0565b6107da565b6107d0565b9050919050565b6000819050919050565b610819836107e4565b61082d61082582610806565b84845461077e565b825550505050565b600090565b610842610835565b61084d818484610810565b505050565b5b818110156108715761086660008261083a565b600181019050610853565b5050565b601f8211156108b6576108878161074c565b61089084610761565b8101602085101561089f578190505b6108b36108ab85610761565b830182610852565b50505b505050565b600082821c905092915050565b60006108d9600019846008026108bb565b1980831691505092915050565b60006108f283836108c8565b9150826002028217905092915050565b61090b826104a9565b67ffffffffffffffff8111156109245761092361071d565b5b61092e8254610680565b610939828285610875565b600060209050601f83116001811461096c576000841561095a578287015190505b61096485826108e6565b8655506109cc565b601f19841661097a8661074c565b60005b828110156109a25784890151825560018201915060208501945060208101905061097d565b868310156109bf57848901516109bb601f8916826108c8565b8355505b6001600288020188555050505b50505050505056fea26469706673582212201b2f3ca5ddff2ad21f67b47a2f7d24d9ab248f8e5f323827da8a348f1c2f34c864736f6c63430008130033",
  "linkReferences": {},
  "deployedLinkReferences": {}
}